:020000040800F2
:1000000060040020D5000008DD000008DF000008C3
:1000100000000000000000000000000000000000E0
:10002000000000000000000000000000E1000008E7
:100030000000000000000000E3000008E5000008E8
:10004000E700000800000000E7000008E7000008E3
:10005000E7000008E7000008E7000008E7000008E4
:1000600000000000E7000008E7000008E7000008C3
:10007000E7000008190D0008E70000080000000074
:100080004D0D00080000000000000000E70000081F
:1000900000000000E7000008E7000008E700000893
:1000A000E7000008E7000008E7000008810D0008ED
:1000B000E700000800000000000000000000000051
:1000C0000348854600F014F800480047A5110008D1
:1000D000600400200448804704480047FEE7FEE72C
:1000E000FEE7FEE7FEE7FEE7150D0008C100000889
:1000F0001CB5094800900948019005460126009C5E
:1001000005E0E36807CC33430C3C98471034AC421D
:10011000F7D3FFF7D9FF0000341300084413000899
:100120000A4908681F22104308601A4830220260FA
:100130000749086810430860C74908680F2212027F
:100140009043052212028018086070473410024064
:100150000408005081B000900098002804D0FFE708
:100160000D491020086003E00A4910200860FFE7ED
:1001700001B0704781B000900098002804D0FFE7DC
:1001800005492020086003E0024920200860FFE7BD
:1001900001B07047180400502804005086B0049045
:1001A00003910498F1490978884203DBFFE70020B6
:1001B000059040E000200290FFE7029863280CDCE5
:1001C000FFE703980299405C002801D1FFE704E0B3
:1001D000FFE70298401C0290EFE7029804994A005A
:1001E000E14989184978884203D0FFE7002005904B
:1001F00021E004984100DC48405C01900020009020
:10020000FFE700980299884212DAFFE70398009A04
:10021000805601998A18D349895C884203D0FFE748
:100220000020059007E0FFE70098401C0090E8E7F9
:1002300001200590FFE7059806B0704789B0079048
:1002400006910798F2490978884204DBFFE700200D
:10025000C043089068E007984100C34841184978B6
:10026000059107994900415CE848401804900598B9
:10027000002804D1FFE70020C043089054E000208C
:100280000390049800782D2809D1FFE701200390FE
:100290000498401C04900598401E0590FFE70598BF
:1002A000002804D1FFE70020C04308903CE00598F7
:1002B0000A2804DBFFE70020C043089034E0002058
:1002C00002900190FFE70198059988421EDAFFE746
:1002D00004980199405C00900098392804DCFFE7FD
:1002E00000982F2804DCFFE70020C04308901BE0A3
:1002F00000983038009002990A204843009940182D
:100300000290FFE70198401C0190DCE70398002869
:1003100004D0FFE7029840420290FFE70298069956
:10032000086000200890FFE7089809B07047C046B1
:1003300083B0029000200190FFE7019863281DDC44
:10034000FFE702980199415C684601700021405620
:10035000002801D1FFE711E0FFE709480068000627
:10036000002801D4FFE7F8E7002168464056054918
:100370000860FFE70198401C0190DEE703B070477A
:100380001C38014028380140A149002008709D49CF
:10039000087070479E480078411E88417047C046EB
:1003A000F0B587B09748002202709748027028493C
:1003B00005910868274B049318400860D84D2868B9
:1003C000264F3840052106914E0380192860D94BED
:1003D0001868012102918C03204318602048019085
:1003E00001680F2000048143029800040918019855
:1003F000016006980007039001680320000681430E
:100400000298400609180398016004980599096844
:1004100001400598016006982968394089192960CA
:100420001968214319600F490F4B0B600F4B1A607D
:1004300000030F4A10608B2080000E4A106008688D
:100440000D22104308601B2000F0D6FC07B0F0BD61
:1004500020040050FFFFFF0000040050FF0FFFFFCB
:1004600024000050003801402000212004380140C1
:10047000083801400C38014086B063480078049089
:100480000498002803D1FFE70020059067E00020D2
:1004900003900290FFE702985B49097888420CDAE2
:1004A000FFE702995948405C202801D0FFE704E0AB
:1004B000FFE70298401C0290EDE7FFE7039807284A
:1004C00040DCFFE702980190FFE702984E49097867
:1004D00088420CDAFFE702994C48405C202801D1A1
:1004E000FFE704E0FFE70298401C0290EDE7029866
:1004F0000199401A00900098002801D1FFE721E0FF
:10050000019803994A00184988540098039A5200A8
:1005100089184870FFE702983B49097888420CDA4D
:10052000FFE702993948405C202801D0FFE704E04A
:10053000FFE70298401C0290EDE7FFE70398401C9C
:100540000390BBE70398002803D1FFE70020059044
:1005500005E003982E49087001200590FFE70598F3
:1005600006B07047110000200100002000000020AC
:1005700080B584B003A90870224800780190002853
:1005800008D0FFE70198012813D0FFE7019802285F
:1005900034D034E003A80078232801D0FFE72FE00F
:1005A000184901200870184900200870184908707F
:1005B00026E003A800780D2805D0FFE703A80078FF
:1005C0000A280AD1FFE7FFF757FF02900298411E61
:1005D000884140000B49087012E00B480078402821
:1005E00004DBFFE707490020087009E00398064B89
:1005F0001A78511C19700549885401E000E0FFE7A2
:1006000004B080BD520000205100002011000020E5
:1006100000000020F0B584B0AE4B012103911960B9
:10062000AB4A04201060C24A1068112420432E24D3
:10063000A0431060814F102038603A4C25680F208D
:1006400000900006854305200606AD1925600607C3
:100650003068354D2840354D40193060080318602A
:10066000B14D2868324B184049064018039928605C
:10067000106818400B06C01810602E4D28684904F9
:1006800008432860BFF34F8F2B48022303602B4899
:100690002B4A02602B4868210191016003982A4986
:1006A00008605348002101608B4801600398274986
:1006B00008602749086000992020386020680907F1
:1006C00088430199801920603468224804402248F8
:1006D000241803983460C4033C60204C02942468BE
:1006E0001F4F3C40C00724180298046003983468E8
:1006F0003C408707E41934602C68860434432C603E
:10070000BFF34F8F174C2360174B1A60174A1160C5
:1007100017490860174908601749086004B0F0BD20
:100720000004005020000050FCCCFFFF032100001B
:10073000FFFFFFFC40100240284401402C440140D0
:10074000FF030000184401402044014014440140CC
:1007500000440140F333FFFF0C8400000800005008
:10076000FFFFFF3F284801402C4801401848014046
:1007700020480140144801400048014081B00090E9
:100780000098002804D0FFE72C491020086003E0FF
:10079000294910200860FFE701B0704781B0009040
:1007A0000098002805D0FFE70120000349490860B0
:1007B00004E00120000346490860FFE701B07047EC
:1007C00081B000900098002803D5FFE7002000903A
:1007D000FFE700982649884204DBFFE701208002FA
:1007E0000090FFE700980249086001B07047C046DA
:1007F0003444014081B000900098002804D0FFE705
:100800000E492020086003E00B4920200860FFE724
:1008100001B0704781B000900098002805D0FFE734
:100820000120C0030549086004E00120C00302491B
:100830000860FFE701B07047280000501800005022
:1008400081B000900098002803D5FFE700200090B9
:10085000FFE700980649884204DBFFE70120800299
:100860000090FFE700980349086001B07047C04658
:10087000010400003448014081B000900098002835
:1008800004D0FFE713490120086003E0104901206C
:100890000860FFE701B0704781B000900098002821
:1008A00004D0FFE70B490420086003E00849042056
:1008B0000860FFE70098411E8841C00306490860B0
:1008C0000098411E8841C0030449086001B0704788
:1008D000280400501804005044440140444801409A
:1008E0000F4908680F4A104008600F4908680F4B0D
:1008F00018401522D206801808600D490868184073
:100900008018086096490868012292031043086025
:100910000F2000020749086007490848086070472F
:1009200024040050FFFF0F0008040050FFFFFF03E6
:100930000004005004380040003800405503000017
:1009400080B586B00A46014605A8017004A90A7060
:1009500000788006800C0978401803A90880FFE71A
:1009600037480068C007002805D0FFE735480088F1
:1009700002A90880F4E70020FFF710FFFFE73048E6
:1009800000688007002801D4FFE7F8E703982D49A5
:100990000880FFE72A480068C007002801D1FFE768
:1009A000F8E72848008803A9019108800120FFF793
:1009B000F5FE019840783F21084006B080BDC04652
:1009C00080B586B00A46014605A8017004A90A70E0
:1009D00000788006800C0978401803A90880FFE79A
:1009E00017480068C007002805D0FFE715480088B1
:1009F00002A90880F4E70020FFF70CFFFFE710488A
:100A000000688007002801D4FFE7F8E703980D4944
:100A10000880FFE70A480068C007002801D1FFE707
:100A2000F8E70848008803A9019108800120FFF732
:100A3000F1FE019840783F21084006B080BDC046D5
:100A4000083800400C380040024908683C229043B6
:100A500008607047000C005082B000900098012898
:100A600004DBFFE70098052803DBFFE70020019087
:100A70000AE0074800680099491EC8400121084063
:100A8000414248410190FFE7019802B07047C046DB
:100A9000100C0050F0B585B02A4908682222104396
:100AA000DD229043086005240494210708680F277D
:100AB0003A049043620480180860234A11680120B8
:100AC0000390C30219431160204A20210091116054
:100AD0001F4A032101911160994A0021029111607E
:100AE0001C4908600D2000F073F9009B019A0299DF
:100AF0000398944D2C60184D2C68FF263606B4439D
:100B000011263606A419049E2C60144D2C683F0350
:100B1000BC437603A4192C60744D2C680226344320
:100B20002C60104C2360104B1A60924A11600F49E0
:100B30000860102000F04CF904988F49086005B057
:100B4000F0BDC0462400005040100240202C01405F
:100B5000082C01400C2C01402008005000080050D7
:100B60003C10024020040040080400400C040040F7
:100B700085B0FFE7EFF3108002900298019072B603
:100B80001548006800906846C0780006002806D521
:100B9000FFE701980490049880F31088EAE76A4818
:100BA00000886946488001980390039880F3108874
:100BB000009805B07047C04662490868012290431A
:100BC0000860054B002018605D4B18605E4B188074
:100BD0000868104308607047242C014080B582B03B
:100BE000019000200090FFE700980199884209D207
:100BF000FFE77D20C00000F007F8FFE70098401CE9
:100C00000090F1E702B080BD81B000900B49002058
:100C100008600B4A10600098C0000A4A106001206A
:100C20000860FFE705480068C003002801D4FFE71B
:100C3000F8E702490020086001B0704710E000E0CA
:100C400018E000E014E000E02849086801221207DB
:100C500010430860BFF34F8F25490868272212020E
:100C600090430322120280180860FFE721480068C1
:100C70004005002801D5FFE7F8E71F490868012271
:100C8000130218430860BFF34F8F1C4908681C4BC0
:100C9000184308601B490868120410430860FFE706
:100CA000184800688003002801D4FFE7F8E71649D8
:100CB00016480860134908680122120610430860AC
:100CC000FFE7104800688001002801D4FFE7F8E73B
:100CD0000F4902200860FFE70D48006838210840EE
:100CE000102801D0FFE7F7E77047C0463C100240EC
:100CF0000070004014700040381002400020024094
:100D000002060000001002400C1002405340003068
:100D10000810024070470000094900200860094897
:100D20000068C006002805D5FFE707490888401E6F
:100D3000088004E004490888401C0880FFE77047E9
:100D4000102C0140002C01405400002009490020D3
:100D5000086009480068C006002805D5FFE7074974
:100D60000888401E088004E004490888401C088068
:100D7000FFE77047100400400004004056000020C8
:100D800080B582B00E480068019001A80078800606
:100D9000002812D5FFE70B4801686846017000780B
:100DA000032805D1FFE7084908480860FFE7FEE788
:100DB00068460078FFF7DCFBFFE702B080BDC04665
:100DC0001C380140243801400CED00E00400FA0515
:100DD00081B001466846017000214056002809D4C0
:100DE000FFE7684601781F200140012088400C4938
:100DF0000860FFE701B0704781B0014668460170A6
:100E000000214056002809D4FFE7684601781F20DA
:100E100001400120884002490860FFE701B07047A7
:100E200000E100E080B582B001900198002818D55B
:100E3000FFE70120FFF7DEFC01984042019000210E
:100E400017484056012808DBFFE70020FFF7F8FCB1
:100E50007D208000FFF7C2FEFFE71149FF200870E8
:100E600015E000200090FFF7C5FC00990C484056A3
:100E7000002808D5FFE70020FFF7E2FC7D20800076
:100E8000FFF7ACFEFFE7064901200870FFE7019875
:100E9000FFF7D6FC0348FFF74BFA02B080BDC0460F
:100EA00058000020E411000880B582B001900120B4
:100EB000FFF7D2FD002821D0FFE70198002804D0D9
:100EC000FFE72B48FFF734FAFFE70020FFF756FC57
:100ED00019200001FFF774FCFFE70120FFF7BCFDBC
:100EE000002801D0FFE7F8E70A20FFF777FE00208F
:100EF000FFF766FC3220FFF771FE08E0019800283A
:100F000004D0FFE71948FFF713FAFFE7FFE701985E
:100F1000002804D0FFE71748FFF70AFAFFE701208F
:100F2000FFF72CFC19200001FFF74AFCFFE7012026
:100F3000FFF792FD002801D1FFE7F8E70A20FFF74D
:100F40004DFE0020FFF73CFCC820FFF747FEFFF7EF
:100F500033FE4349012008700198002804D0FFE7C0
:100F60000548FFF7E5F9FFE702B080BD1013000860
:100F7000F212000802130008F711000880B586B0CD
:100F8000059037480078002804D1FFE73548FFF77F
:100F9000CFF962E00598002804D5FFE73748FFF74E
:100FA000C7F95AE00598992804DBFFE73248FFF7B4
:100FB000BFF952E005992C4848430590FFF7D8FD4A
:100FC0004042049005980499401A03900398002821
:100FD00004D5FFE7039840420390FFE70398632896
:100FE00004DCFFE72348FFF7A3F936E01F48FFF7CB
:100FF0009FF90599049A01200023019391420290E0
:1010000001DD019802900298FFF7B8FB192000015A
:10101000FFF7D6FB0598049988420ADDFFE7FFE752
:10102000FFF7A6FD40420599884201DAFFE7F7E79E
:1010300009E0FFE7FFF79CFD40420599884201DD8A
:10104000FFE7F7E7FFE70120FFF7C8FD0020FFF704
:10105000B7FB0748FFF76CF9FFE706B080BDC04655
:1010600059000020B81200086F020000E7120008C3
:101070000A120008261200087512000898120008CB
:1010800080B588B0FFF7C6FAFFF72AFCFFF702FD2C
:10109000FFF7DAFC6420FFF7A1FD01200090FFF7C5
:1010A000FBFB0098FFF79AFD082002908021019138
:1010B000FFF746FC01990298FFF782FC0C20049090
:1010C0001C210391FFF73CFC03990498FFF778FC7F
:1010D00000200590FFF7D0FB0598FFF73BF8FFE7EE
:1010E0000020FFF747F8FFF74FF9FFE7FFF752F946
:1010F000002801D1FFE7F9E70120FFF73BF80A20BC
:10110000FFF76CFD21490020FFF748F8002801D1C6
:10111000FFE7E5E71E490120FFF740F8002804D06B
:10112000FFE70120FFF7C0FEDAE71A490120FFF7C9
:1011300035F800280FD0FFE7022007A9FFF77EF857
:10114000002804D0FFE71648FFF7F2F8C8E7079831
:10115000FFF714FFC4E710490120FFF71FF800282C
:101160000FD0FFE7022006A9FFF768F8002804D097
:10117000FFE70B48FFF7DCF8B2E70698FFF752FEEF
:10118000AEE70648FFF7D4F8AAE7C0462F130008D9
:101190001F1300082413000829130008D3120008A5
:1011A0005112000880B582B000200190FFF74CFD7D
:1011B000FEF7B6FFFFF7F4F80120FEF7CBFFFFF7CD
:1011C0005FFFFFE7FEE702E008C8121F08C1002A20
:1011D000FAD170477047002001E001C1121F002AB8
:1011E000FBD170474472696C6C20636F6D6D616EEA
:1011F0006465642E0A0A00486F6D696E6720636F2C
:101200006D706C6574652E0A0A004D6F76656420FA
:10121000746F2074617267657420706F736974698C
:101220006F6E2E0A0A00416C726561647920636CEE
:101230006F736520656E6F75676820746F207461C9
:101240007267657420706F736974696F6E2E0A0A15
:1012500000506172616D6574657220322073686F31
:10126000756C6420626520616E20696E74656765C7
:10127000722E0A0A0043616E6E6F74206D6F766580
:10128000206265796F6E6420626F74746F6D206C7C
:10129000696D69742E0A0A0043616E6E6F74206D69
:1012A0006F7665206265796F6E6420746F70206C54
:1012B000696D69742E0A0A00506C65617365206857
:1012C0006F6D65206472696C6C2066697273742E30
:1012D0000A0A00436F6D6D616E64206E6F74206644
:1012E0006F756E640A0A004D6F76696E672E2E2E3A
:1012F0000A00486F6D696E6720646F776E2E2E2E20
:101300000A00486F6D696E672075702E2E2E0A00D8
:10131000416C726561647920646F776E2E0A0048B3
:101320004F4D45004D4F5645004452494C4C0044EA
:101330005353000044130008000000206004000024
:04134000D6110008BA
:04000005080000C12E
:00000001FF
